:020000040800F2
:1000000088060020C1010008C9010008CB010008D2
:10001000CD010008CF010008D10100080000000058
:10002000000000000000000000000000D3010008F4
:10003000D501000800000000D7010008B104000845
:10004000DB010008DB010008DB010008DB01000820
:10005000DB010008DB010008DB010008DB01000810
:10006000DB010008DB010008DB010008DB01000800
:10007000DB010008DB010008DB010008DB010008F0
:10008000DB010008DB010008DB010008DB010008E0
:10009000DB010008DB010008DB010008DB010008D0
:1000A000DB010008DB010008DB010008DB010008C0
:1000B000DB010008DB010008DB010008DB010008B0
:1000C000DB010008DB010008DB010008DB010008A0
:1000D000DB010008DB010008DB010008DB01000890
:1000E000DB010008DB010008DB010008DB01000880
:1000F000DB01000800000000DB010008DB01000854
:100100000000000000000000DB010008DB01000827
:10011000DB010008DB010008DB010008DB0100084F
:10012000DB01000800F002F800F03AF80AA090E8BD
:10013000000C82448344AAF10107DA4501D100F0A2
:100140002FF8AFF2090EBAE80F0013F0010F18BF35
:10015000FB1A43F0010318477005000090050000EA
:10016000103A24BF78C878C1FAD8520724BF30C8E3
:1001700030C144BF04680C607047000000230024B5
:1001800000250026103A28BF78C1FBD8520728BFA7
:1001900030C148BF0B6070471FB51FBD10B510BD03
:1001A00000F031F81146FFF7F7FF00F007FA00F012
:1001B0004FF803B4FFF7F2FF03BC00F057F800005C
:1001C0000948804709480047FEE7FEE7FEE7FEE7EB
:1001D000FEE7FEE7FEE7FEE7FEE7FEE70448054927
:1001E000054A064B70470000550500082501000828
:1001F0008800002088060020880200208802002055
:10020000704770477047754600F02CF8AE46050001
:100210006946534620F00700854618B020B5FFF721
:10022000DDFFBDE820404FF000064FF000074FF023
:1002300000084FF0000B21F00701AC46ACE8C00904
:10024000ACE8C009ACE8C009ACE8C0098D4670470D
:1002500010B50446AFF300802046BDE81040FFF71C
:10026000A8BF00000048704728000020014918205E
:10027000ABBEFEE726000200704700001CB501215E
:10028000084600F07DF80120009000208DF8040061
:1002900001208DF8050000208DF806008DF807007C
:1002A0006946024800F004F81CBD0000000002404E
:1002B000F0B502460B46002100240025002000BFB7
:1002C00035E0012606FA01F41E6806EA0405A54297
:1002D0002CD110684F000326BE40B0431E794F005A
:1002E000BE40304310601E79012E02D01E79022ECE
:1002F00012D190684F000326BE40B0435E794F0094
:10030000BE4030439060908801268E40B0439E7975
:100310008E40B6B230439080D0684F000326BE4076
:10032000B043DE794F00BE403043D060491C1029F5
:10033000C7D3F0BD02460020138A0B400BB1012049
:1003400000E0002070474183704701837047000040
:100350001CB50121022000F013F8C02000900120FC
:100360008DF804008DF8050000208DF806008DF84A
:10037000070069460148FFF79BFF1CBD00040240CF
:1003800029B1064A12680243044B1A6004E0034A8A
:1003900012688243014B1A60704700001C3802400B
:1003A0000CB50020019000903E48006840F4803079
:1003B0003C49086000BF3B48006800F400300090F2
:1003C0000198401C0190009818B90198B0F5A04F11
:1003D000F1D13448006800F4003010B101200090E1
:1003E00001E0002000900098012859D12E480068B3
:1003F00040F004002C4908600846006840F0020004
:1004000008600846006840F0010008602548243074
:10041000006840F08050234924310860C814234903
:10042000086000BF2148406800F010000028F9D1A2
:100430001C48083000681B490831086008460068FD
:1004400008600846006808600846006820F47D00DF
:1004500008600846006840F4110008601148006810
:1004600040F080700F49086000BF0E48006800F03F
:1004700000700028F9D00B480830006820F0030015
:100480000849083108600846006840F00300086029
:1004900000BF04480830006800F00C000C28F8D1B8
:1004A0000CBD000000380240003C024000700040DB
:1004B00010B520480088002804DD1E480088401E32
:1004C0001C4908801C480088002804DD1A48008860
:1004D000401E1949088001211848FFF72BFF012809
:1004E0001AD117480078052805DA15480078401C0D
:1004F000134908701DE013480078D0B90120114954
:1005000008700020104908700120104908708021EF
:100510000F48FFF718FF0CE009480078002805DDB8
:1005200007480078401E0649087002E0002005498F
:10053000087010BD1E0000202200002000000240B4
:10054000250000202600002020000020240000209C
:100550000004024010B51548006840F4807013494B
:100560000860124808300068114908400F490831F6
:1005700008600E4800680F4908400C4908600846AA
:10058000006820F48020086008480830006820F4E3
:100590007D000649083108600020091D0860FFF74A
:1005A000FFFE4FF000600449086010BD00380240B3
:1005B0000CC0FF88FEFFFEEE08ED00E0FFF7C8FE6E
:1005C000FFF75CFE384800684FF47A72B0FBF2F136
:1005D000481EB0F1807F00D31BE0481E4FF0E022A0
:1005E000506150170F22002807DA13071D0E2F4BFA
:1005F00000F00F04241F1D5503E013071C0E2C4BA5
:100600001C5400BF00204FF0E022906107201061D1
:1006100000BF32202749088000202749087042E0A7
:100620002548007800BB25480078012809D13220F0
:100630002049088040212248FFF787FE00201F49FB
:1006400008701C48008870BB40211D48FFF77BFEE6
:100650001C480078012801D117490870012016496B
:100660000870164908701EE01348007801281AD156
:1006700012480078012809D132200E4908808021D3
:100680000F48FFF762FE00200C49087009480088F7
:1006900048B980210A48FFF756FE00200649087035
:1006A000012006490870BBE70000002018ED00E0BB
:1006B00000E400E0220000202000002024000020B0
:1006C0000004024026000020E80600080000002088
:1006D0002800000060010008100700082800002022
:1006E000600600007C010008006CDC0203040608C0
:1006F0000C10182030000000000000000001020370
:1007000004060708090000000000000000000000C7
:04000005080001C12D
:00000001FF
